:1004470050617373776F72643A00204F4B210045F8
:0404570052522100DC
:10018C0012045B7BFF7A0479477D017F011203BE69
:10019C001200038F1CE51C60F7D3940A5041C3E591
:1001AC00199404E51894005028AE1AAF1B7C007DFE
:1001BC000A1202798E1A8F1BE51C75F00A84E5F081
:1001CC00251BF51BE4351AF51A0519E519700205FE
:1001DC0018750C04AB1BAA1A7D017F021203FFE5F4
:1001EC001C640B7036E51BB4B80DE51AB411087B12
:1001FC00FF7A04795180067BFF7A0479567D0D7F56
:10020C00011203BEE4F51AF51BF518F519750C046B
:10021C00AB1BAA1A7D017F021203FFE51C640C6064
:10022C000302019C12045BE4F51AF51BF518F51991
:10023C007BFF7A0479477D017F011203BE02019C8A
:10043200EF1FAC0670011E4C600A7D027CC7DCFE19
:04044200DDFC80EC71
:010446002293
:06046F00C2A58F80D2A798
:080475007F027EEFDEFEDFFCDA
:01047D00225C
:0A048A00C2A612046FC2A702047597
:1003E100CFCDCFCECCCE12028B7C007D0A12028BF8
:0403F100ED2430FFC8
:0A03F500D2A612046FC2A70204751D
:10041C00AE07BE0104ED148006BE0209ED243F4474
:06042C0080FF12048A2289
:10045B007F3812048A7F0C12048A7F0612048A7F6B
:04046B000102048AFC
:0A049400AC0312041CAF040203F5D0
:0603BE008B088A09890A80
:1003C40012041CE4FDAB08AA09A90A8D82758300F6
:0C03D40012024CFF60061203F50D80E9D8
:0103E00022FA
:0C038B007F0AEA24FFFDE434FFFC7E0042
:080397008E0D8F0E8C0F8D10EE
:10039F007F017E00E4FBEBC39510E50F6480F874DA
:0E03AF008098500AAC0DAD0E1202790B80E85A
:0103BD00221D
:0403FF008A0A8B0BD0
:1004030012041CAA0CEAD39400400D12038BAC0A0D
:08041300AD0B1203E11A80EDAC
:01041B0022BE
:1002E00012041CC3EA64809480400B7F2B1203F538
:1002F0008A168B17800E7F2D1203F5C3E49BF5172A
:10030000E49AF516AA15EAD39400400D12038BACBB
:0903100016AD171203E11A80ED8D
:0103190022C1
:04031A008A1F8B208B
:10031E0012041CAA21EAD3940040297F1012038DE7
:10032E00AC1FAD20CFCDCFCECCCE12028BEF540F63
:10033E00FEC3940AEE5004243080022437FF1203C9
:04034E00F51A80D14B
:010352002288
:040353008A248B2548
:1003570012041CAA26EAD394004028EA24FFFDE4ED
:1003670034FFFC7F027E00120397AC24AD25CFCD6E
:10037700CFCECCCE12028BEF54012430FF1203F5FF
:030387001A80D207
:01038A002250
:10000300E4F5087590FFC2932097137F14FE120442
:10001300323097FD7F147E0012043275080120965A
:10002300147F147E001204323096FD7F147E00127A
:1000330004327508052095147F147E0012043230B3
:1000430095FD7F147E001204327508092094147FF5
:10005300147E001204323094FD7F147E00120432A9
:1000630075080D7590FFC2922097147F147E0012BD
:1000730004323097FD7F147E00120432750802208B
:1000830096147F147E001204323096FD7F147E0096
:100093001204327508062095147F147E0012043270
:1000A3003095FD7F147E0012043275080A209414E3
:1000B3007F147E001204323094FD7F147E001204FC
:1000C3003275080E7590FFC2912097147F147E003D
:1000D3001204323097FD7F147E0012043275080338
:1000E3002096147F147E001204323096FD7F147E16
:1000F300001204327508072095147F147E00120441
:10010300323095FD7F147E0012043275080B209463
:10011300147F147E001204323094FD7F147E00128B
:10012300043275080F7590FFC2902097147F147ED8
:10013300001204323097FD7F147E001204327508DA
:10014300042096147F147E001204323096FD7F142F
:100153007E001204327508082095147F147E001265
:1001630004323095FD7F147E0012043275080C2092
:1001730094147F147E001204323094FD7F147E00A9
:08018300120432750810AF08E8
:01018B002251
:0300000002047E79
:0C047E00787FE4F6D8FD75812602018C21
:10024C00BB010CE58229F582E5833AF583E0225067
:10025C0006E92582F8E622BBFE06E92582F8E222B1
:0D026C00E58229F582E5833AF583E49322CB
:10027900EF8DF0A4A8F0CF8CF0A428CE8DF0A42E99
:02028900FE2253
:10028B00BC000BBE0029EF8DF084FFADF022E4CC57
:10029B00F875F008EF2FFFEE33FEEC33FCEE9DEC20
:1002AB00984005FCEE9DFE0FD5F0E9E4CEFD22ED66
:1002BB00F8F5F0EE8420D21CFEADF075F008EF2FB0
:1002CB00FFED33FD4007985006D5F0F222C398FDA1
:0502DB000FD5F0EA223E
:00000001FF
